{
	"data": {
		"bytecode": {
			"linkReferences": {},
			"object": "608060405234801561000f575f80fd5b50335f806101000a81548173ffffffffffffffffffffffffffffffffffffffff021916908373ffffffffffffffffffffffffffffffffffffffff16021790555061160d8061005c5f395ff3fe60806040526004361061009b575f3560e01c80638da5cb5b116100635780638da5cb5b146101335780639d76ea581461015d578063d27aa8ff14610187578063e86790eb146101af578063ff332ab7146101d9578063ffdeb903146102085761009b565b806305b1137b1461009f578063280da6fa146100bb5780632d296bf1146100d15780635ed9ebfc146100ed57806387c1ed1214610117575b5f80fd5b6100b960048036038101906100b49190610d6e565b610230565b005b3480156100c6575f80fd5b506100cf610320565b005b6100eb60048036038101906100e69190610dac565b61056c565b005b3480156100f8575f80fd5b506101016107a6565b60405161010e9190610de6565b60405180910390f35b610131600480360381019061012c9190610dac565b6107ac565b005b34801561013e575f80fd5b506101476108bb565b6040516101549190610e0e565b60405180910390f35b348015610168575f80fd5b506101716108de565b60405161017e9190610e0e565b60405180910390f35b348015610192575f80fd5b506101ad60048036038101906101a89190610e27565b610903565b005b3480156101ba575f80fd5b506101c36109d3565b6040516101d09190610de6565b60405180910390f35b3480156101e4575f80fd5b506101ed6109d9565b6040516101ff96959493929190610edc565b60405180910390f35b348015610213575f80fd5b5061022e60048036038101906102299190610dac565b610c04565b005b80341015610273576040517f08c379a000000000000000000000000000000000000000000000000000000000815260040161026a90610f93565b60405180910390fd5b5f8273ffffffffffffffffffffffffffffffffffffffff168260405161029890610fde565b5f6040518083038185875af1925050503d805f81146102d2576040519150601f19603f3d011682016040523d82523d5f602084013e6102d7565b606091505b505090508061031b576040517f08c379a00000000000000000000000000000000000000000000000000000000081526004016103129061103c565b60405180910390fd5b505050565b5f8054906101000a900473ffffffffffffffffffffffffffffffffffffffff1673ffffffffffffffffffffffffffffffffffffffff163373ffffffffffffffffffffffffffffffffffffffff16146103ad576040517f08c379a00000000000000000000000000000000000000000000000000000000081526004016103a4906110ca565b60405180910390fd5b5f60015f9054906101000a900473ffffffffffffffffffffffffffffffffffffffff1690505f8173ffffffffffffffffffffffffffffffffffffffff166370a08231306040518263ffffffff1660e01b815260040161040c9190610e0e565b602060405180830381865afa158015610427573d5f803e3d5ffd5b505050506040513d601f19601f8201168201806040525081019061044b91906110fc565b90505f811161048f576040517f08c379a000000000000000000000000000000000000000000000000000000000815260040161048690611171565b60405180910390fd5b8173ffffffffffffffffffffffffffffffffffffffff1663a9059cbb5f8054906101000a900473ffffffffffffffffffffffffffffffffffffffff16836040518363ffffffff1660e01b81526004016104e992919061118f565b6020604051808303815f875af1158015610505573d5f803e3d5ffd5b505050506040513d601f19601f8201168201806040525081019061052991906111eb565b610568576040517f08c379a000000000000000000000000000000000000000000000000000000000815260040161055f90611260565b60405180910390fd5b5050565b61057881600254610c9b565b34146105b9576040517f08c379a00000000000000000000000000000000000000000000000000000000081526004016105b0906112ee565b60405180910390fd5b5f60015f9054906101000a900473ffffffffffffffffffffffffffffffffffffffff1690508073ffffffffffffffffffffffffffffffffffffffff166370a08231306040518263ffffffff1660e01b81526004016106179190610e0e565b602060405180830381865afa158015610632573d5f803e3d5ffd5b505050506040513d601f19601f8201168201806040525081019061065691906110fc565b821115610698576040517f08c379a000000000000000000000000000000000000000000000000000000000815260040161068f90611356565b60405180910390fd5b8073ffffffffffffffffffffffffffffffffffffffff1663a9059cbb33670de0b6b3a7640000856106c991906113a1565b6040518363ffffffff1660e01b81526004016106e692919061118f565b6020604051808303815f875af1158015610702573d5f803e3d5ffd5b505050506040513d601f19601f8201168201806040525081019061072691906111eb565b505f8054906101000a900473ffffffffffffffffffffffffffffffffffffffff1673ffffffffffffffffffffffffffffffffffffffff166108fc3490811502906040515f60405180830381858888f19350505050158015610789573d5f803e3d5ffd5b508160035f82825461079b91906113e2565b925050819055505050565b60035481565b803410156107ef576040517f08c379a00000000000000000000000000000000000000000000000000000000081526004016107e690610f93565b60405180910390fd5b5f805f9054906101000a900473ffffffffffffffffffffffffffffffffffffffff1673ffffffffffffffffffffffffffffffffffffffff168260405161083490610fde565b5f6040518083038185875af1925050503d805f811461086e576040519150601f19603f3d011682016040523d82523d5f602084013e610873565b606091505b50509050806108b7576040517f08c379a00000000000000000000000000000000000000000000000000000000081526004016108ae9061103c565b60405180910390fd5b5050565b5f8054906101000a900473ffffffffffffffffffffffffffffffffffffffff1681565b60015f9054906101000a900473ffffffffffffffffffffffffffffffffffffffff1681565b5f8054906101000a900473ffffffffffffffffffffffffffffffffffffffff1673ffffffffffffffffffffffffffffffffffffffff163373ffffffffffffffffffffffffffffffffffffffff1614610990576040517f08c379a0000000000000000000000000000000000000000000000000000000008152600401610987906110ca565b60405180910390fd5b8060015f6101000a81548173ffffffffffffffffffffffffffffffffffffffff021916908373ffffffffffffffffffffffffffffffffffffffff16021790555050565b60025481565b6060805f805f805f60015f9054906101000a900473ffffffffffffffffffffffffffffffffffffffff1690508073ffffffffffffffffffffffffffffffffffffffff166306fdde036040518163ffffffff1660e01b81526004015f60405180830381865afa158015610a4d573d5f803e3d5ffd5b505050506040513d5f823e3d601f19601f82011682018060405250810190610a759190611533565b8173ffffffffffffffffffffffffffffffffffffffff166395d89b416040518163ffffffff1660e01b81526004015f60405180830381865afa158015610abd573d5f803e3d5ffd5b505050506040513d5f823e3d601f19601f82011682018060405250810190610ae59190611533565b8273ffffffffffffffffffffffffffffffffffffffff166370a08231306040518263ffffffff1660e01b8152600401610b1e9190610e0e565b602060405180830381865afa158015610b39573d5f803e3d5ffd5b505050506040513d601f19601f82011682018060405250810190610b5d91906110fc565b8373ffffffffffffffffffffffffffffffffffffffff166318160ddd6040518163ffffffff1660e01b8152600401602060405180830381865afa158015610ba6573d5f803e3d5ffd5b505050506040513d601f19601f82011682018060405250810190610bca91906110fc565b60025460015f9054906101000a900473ffffffffffffffffffffffffffffffffffffffff1696509650965096509650965050909192939495565b5f8054906101000a900473ffffffffffffffffffffffffffffffffffffffff1673ffffffffffffffffffffffffffffffffffffffff163373ffffffffffffffffffffffffffffffffffffffff1614610c91576040517f08c379a0000000000000000000000000000000000000000000000000000000008152600401610c88906110ca565b60405180910390fd5b8060028190555050565b5f80821480610cc2575082828385610cb391906113a1565b925082610cc091906115a7565b145b610cca575f80fd5b92915050565b5f604051905090565b5f80fd5b5f80fd5b5f73ffffffffffffffffffffffffffffffffffffffff82169050919050565b5f610d0a82610ce1565b9050919050565b610d1a81610d00565b8114610d24575f80fd5b50565b5f81359050610d3581610d11565b92915050565b5f819050919050565b610d4d81610d3b565b8114610d57575f80fd5b50565b5f81359050610d6881610d44565b92915050565b5f8060408385031215610d8457610d83610cd9565b5b5f610d9185828601610d27565b9250506020610da285828601610d5a565b9150509250929050565b5f60208284031215610dc157610dc0610cd9565b5b5f610dce84828501610d5a565b91505092915050565b610de081610d3b565b82525050565b5f602082019050610df95f830184610dd7565b92915050565b610e0881610d00565b82525050565b5f602082019050610e215f830184610dff565b92915050565b5f60208284031215610e3c57610e3b610cd9565b5b5f610e4984828501610d27565b91505092915050565b5f81519050919050565b5f82825260208201905092915050565b5f5b83811015610e89578082015181840152602081019050610e6e565b5f8484015250505050565b5f601f19601f8301169050919050565b5f610eae82610e52565b610eb88185610e5c565b9350610ec8818560208601610e6c565b610ed181610e94565b840191505092915050565b5f60c0820190508181035f830152610ef48189610ea4565b90508181036020830152610f088188610ea4565b9050610f176040830187610dd7565b610f246060830186610dd7565b610f316080830185610dd7565b610f3e60a0830184610dff565b979650505050505050565b7f496e737566666963656e742066756e6e642073656e74000000000000000000005f82015250565b5f610f7d601683610e5c565b9150610f8882610f49565b602082019050919050565b5f6020820190508181035f830152610faa81610f71565b9050919050565b5f81905092915050565b50565b5f610fc95f83610fb1565b9150610fd482610fbb565b5f82019050919050565b5f610fe882610fbe565b9150819050919050565b7f5472616e73616374696f6e206661696c656400000000000000000000000000005f82015250565b5f611026601283610e5c565b915061103182610ff2565b602082019050919050565b5f6020820190508181035f8301526110538161101a565b9050919050565b7f546869732066756e6374696f6e206973206f6e6c792063616c6c6564206279205f8201527f6f776e6572000000000000000000000000000000000000000000000000000000602082015250565b5f6110b4602583610e5c565b91506110bf8261105a565b604082019050919050565b5f6020820190508181035f8301526110e1816110a8565b9050919050565b5f815190506110f681610d44565b92915050565b5f6020828403121561111157611110610cd9565b5b5f61111e848285016110e8565b91505092915050565b7f7468657265206973206e6f20746f6b656e20746f207472616e736665720000005f82015250565b5f61115b601d83610e5c565b915061116682611127565b602082019050919050565b5f6020820190508181035f8301526111888161114f565b9050919050565b5f6040820190506111a25f830185610dff565b6111af6020830184610dd7565b9392505050565b5f8115159050919050565b6111ca816111b6565b81146111d4575f80fd5b50565b5f815190506111e5816111c1565b92915050565b5f60208284031215611200576111ff610cd9565b5b5f61120d848285016111d7565b91505092915050565b7f7472616e73616374696f6e20676f74206661696c6564000000000000000000005f82015250565b5f61124a601683610e5c565b915061125582611216565b602082019050919050565b5f6020820190508181035f8301526112778161123e565b9050919050565b7f496e737566666963656e742066756e6420746f206275792074686520746f6b655f8201527f6e00000000000000000000000000000000000000000000000000000000000000602082015250565b5f6112d8602183610e5c565b91506112e38261127e565b604082019050919050565b5f6020820190508181035f830152611305816112cc565b9050919050565b7f7468657265206973206e6f2073756666696365696e7420746f6b656e730000005f82015250565b5f611340601d83610e5c565b915061134b8261130c565b602082019050919050565b5f6020820190508181035f83015261136d81611334565b9050919050565b7f4e487b71000000000000000000000000000000000000000000000000000000005f52601160045260245ffd5b5f6113ab82610d3b565b91506113b683610d3b565b92508282026113c481610d3b565b915082820484148315176113db576113da611374565b5b5092915050565b5f6113ec82610d3b565b91506113f783610d3b565b925082820190508082111561140f5761140e611374565b5b92915050565b5f80fd5b5f80fd5b7f4e487b71000000000000000000000000000000000000000000000000000000005f52604160045260245ffd5b61145382610e94565b810181811067ffffffffffffffff821117156114725761147161141d565b5b80604052505050565b5f611484610cd0565b9050611490828261144a565b919050565b5f67ffffffffffffffff8211156114af576114ae61141d565b5b6114b882610e94565b9050602081019050919050565b5f6114d76114d284611495565b61147b565b9050828152602081018484840111156114f3576114f2611419565b5b6114fe848285610e6c565b509392505050565b5f82601f83011261151a57611519611415565b5b815161152a8482602086016114c5565b91505092915050565b5f6020828403121561154857611547610cd9565b5b5f82015167ffffffffffffffff81111561156557611564610cdd565b5b61157184828501611506565b91505092915050565b7f4e487b71000000000000000000000000000000000000000000000000000000005f52601260045260245ffd5b5f6115b182610d3b565b91506115bc83610d3b565b9250826115cc576115cb61157a565b5b82820490509291505056fea26469706673582212200890366ea8dd21a6e4e117af1e3251037ef80d2ca24fc004515c65c4ceeb535d64736f6c63430008180033",
			"opcodes": "PUSH1 0x80 PUSH1 0x40 MSTORE CALLVALUE DUP1 ISZERO PUSH2 0xF JUMPI PUSH0 DUP1 REVERT JUMPDEST POP CALLER PUSH0 DUP1 PUSH2 0x100 EXP DUP2 SLOAD DUP2 PUSH20 0xFFFFFFFFFFFFFFFFFFFFFFFFFFFFFFFFFFFFFFFF MUL NOT AND SWAP1 DUP4 PUSH20 0xFFFFFFFFFFFFFFFFFFFFFFFFFFFFFFFFFFFFFFFF AND MUL OR SWAP1 SSTORE POP PUSH2 0x160D DUP1 PUSH2 0x5C PUSH0 CODECOPY PUSH0 RETURN INVALID PUSH1 0x80 PUSH1 0x40 MSTORE PUSH1 0x4 CALLDATASIZE LT PUSH2 0x9B JUMPI PUSH0 CALLDATALOAD PUSH1 0xE0 SHR DUP1 PUSH4 0x8DA5CB5B GT PUSH2 0x63 JUMPI DUP1 PUSH4 0x8DA5CB5B EQ PUSH2 0x133 JUMPI DUP1 PUSH4 0x9D76EA58 EQ PUSH2 0x15D JUMPI DUP1 PUSH4 0xD27AA8FF EQ PUSH2 0x187 JUMPI DUP1 PUSH4 0xE86790EB EQ PUSH2 0x1AF JUMPI DUP1 PUSH4 0xFF332AB7 EQ PUSH2 0x1D9 JUMPI DUP1 PUSH4 0xFFDEB903 EQ PUSH2 0x208 JUMPI PUSH2 0x9B JUMP JUMPDEST DUP1 PUSH4 0x5B1137B EQ PUSH2 0x9F JUMPI DUP1 PUSH4 0x280DA6FA EQ PUSH2 0xBB JUMPI DUP1 PUSH4 0x2D296BF1 EQ PUSH2 0xD1 JUMPI DUP1 PUSH4 0x5ED9EBFC EQ PUSH2 0xED JUMPI DUP1 PUSH4 0x87C1ED12 EQ PUSH2 0x117 JUMPI JUMPDEST PUSH0 DUP1 REVERT JUMPDEST PUSH2 0xB9 PUSH1 0x4 DUP1 CALLDATASIZE SUB DUP2 ADD SWAP1 PUSH2 0xB4 SWAP2 SWAP1 PUSH2 0xD6E JUMP JUMPDEST PUSH2 0x230 JUMP JUMPDEST STOP JUMPDEST CALLVALUE DUP1 ISZERO PUSH2 0xC6 JUMPI PUSH0 DUP1 REVERT JUMPDEST POP PUSH2 0xCF PUSH2 0x320 JUMP JUMPDEST STOP JUMPDEST PUSH2 0xEB PUSH1 0x4 DUP1 CALLDATASIZE SUB DUP2 ADD SWAP1 PUSH2 0xE6 SWAP2 SWAP1 PUSH2 0xDAC JUMP JUMPDEST PUSH2 0x56C JUMP JUMPDEST STOP JUMPDEST CALLVALUE DUP1 ISZERO PUSH2 0xF8 JUMPI PUSH0 DUP1 REVERT JUMPDEST POP PUSH2 0x101 PUSH2 0x7A6 JUMP JUMPDEST PUSH1 0x40 MLOAD PUSH2 0x10E SWAP2 SWAP1 PUSH2 0xDE6 JUMP JUMPDEST PUSH1 0x40 MLOAD DUP1 SWAP2 SUB SWAP1 RETURN JUMPDEST PUSH2 0x131 PUSH1 0x4 DUP1 CALLDATASIZE SUB DUP2 ADD SWAP1 PUSH2 0x12C SWAP2 SWAP1 PUSH2 0xDAC JUMP JUMPDEST PUSH2 0x7AC JUMP JUMPDEST STOP JUMPDEST CALLVALUE DUP1 ISZERO PUSH2 0x13E JUMPI PUSH0 DUP1 REVERT JUMPDEST POP PUSH2 0x147 PUSH2 0x8BB JUMP JUMPDEST PUSH1 0x40 MLOAD PUSH2 0x154 SWAP2 SWAP1 PUSH2 0xE0E JUMP JUMPDEST PUSH1 0x40 MLOAD DUP1 SWAP2 SUB SWAP1 RETURN JUMPDEST CALLVALUE DUP1 ISZERO PUSH2 0x168 JUMPI PUSH0 DUP1 REVERT JUMPDEST POP PUSH2 0x171 PUSH2 0x8DE JUMP JUMPDEST PUSH1 0x40 MLOAD PUSH2 0x17E SWAP2 SWAP1 PUSH2 0xE0E JUMP JUMPDEST PUSH1 0x40 MLOAD DUP1 SWAP2 SUB SWAP1 RETURN JUMPDEST CALLVALUE DUP1 ISZERO PUSH2 0x192 JUMPI PUSH0 DUP1 REVERT JUMPDEST POP PUSH2 0x1AD PUSH1 0x4 DUP1 CALLDATASIZE SUB DUP2 ADD SWAP1 PUSH2 0x1A8 SWAP2 SWAP1 PUSH2 0xE27 JUMP JUMPDEST PUSH2 0x903 JUMP JUMPDEST STOP JUMPDEST CALLVALUE DUP1 ISZERO PUSH2 0x1BA JUMPI PUSH0 DUP1 REVERT JUMPDEST POP PUSH2 0x1C3 PUSH2 0x9D3 JUMP JUMPDEST PUSH1 0x40 MLOAD PUSH2 0x1D0 SWAP2 SWAP1 PUSH2 0xDE6 JUMP JUMPDEST PUSH1 0x40 MLOAD DUP1 SWAP2 SUB SWAP1 RETURN JUMPDEST CALLVALUE DUP1 ISZERO PUSH2 0x1E4 JUMPI PUSH0 DUP1 REVERT JUMPDEST POP PUSH2 0x1ED PUSH2 0x9D9 JUMP JUMPDEST PUSH1 0x40 MLOAD PUSH2 0x1FF SWAP7 SWAP6 SWAP5 SWAP4 SWAP3 SWAP2 SWAP1 PUSH2 0xEDC JUMP JUMPDEST PUSH1 0x40 MLOAD DUP1 SWAP2 SUB SWAP1 RETURN JUMPDEST CALLVALUE DUP1 ISZERO PUSH2 0x213 JUMPI PUSH0 DUP1 REVERT JUMPDEST POP PUSH2 0x22E PUSH1 0x4 DUP1 CALLDATASIZE SUB DUP2 ADD SWAP1 PUSH2 0x229 SWAP2 SWAP1 PUSH2 0xDAC JUMP JUMPDEST PUSH2 0xC04 JUMP JUMPDEST STOP JUMPDEST DUP1 CALLVALUE LT ISZERO PUSH2 0x273 JUMPI PUSH1 0x40 MLOAD PUSH32 0x8C379A000000000000000000000000000000000000000000000000000000000 DUP2 MSTORE PUSH1 0x4 ADD PUSH2 0x26A SWAP1 PUSH2 0xF93 JUMP JUMPDEST PUSH1 0x40 MLOAD DUP1 SWAP2 SUB SWAP1 REVERT JUMPDEST PUSH0 DUP3 PUSH20 0xFFFFFFFFFFFFFFFFFFFFFFFFFFFFFFFFFFFFFFFF AND DUP3 PUSH1 0x40 MLOAD PUSH2 0x298 SWAP1 PUSH2 0xFDE JUMP JUMPDEST PUSH0 PUSH1 0x40 MLOAD DUP1 DUP4 SUB DUP2 DUP6 DUP8 GAS CALL SWAP3 POP POP POP RETURNDATASIZE DUP1 PUSH0 DUP2 EQ PUSH2 0x2D2 JUMPI PUSH1 0x40 MLOAD SWAP2 POP PUSH1 0x1F NOT PUSH1 0x3F RETURNDATASIZE ADD AND DUP3 ADD PUSH1 0x40 MSTORE RETURNDATASIZE DUP3 MSTORE RETURNDATASIZE PUSH0 PUSH1 0x20 DUP5 ADD RETURNDATACOPY PUSH2 0x2D7 JUMP JUMPDEST PUSH1 0x60 SWAP2 POP JUMPDEST POP POP SWAP1 POP DUP1 PUSH2 0x31B JUMPI PUSH1 0x40 MLOAD PUSH32 0x8C379A000000000000000000000000000000000000000000000000000000000 DUP2 MSTORE PUSH1 0x4 ADD PUSH2 0x312 SWAP1 PUSH2 0x103C JUMP JUMPDEST PUSH1 0x40 MLOAD DUP1 SWAP2 SUB SWAP1 REVERT JUMPDEST POP POP POP JUMP JUMPDEST PUSH0 DUP1 SLOAD SWAP1 PUSH2 0x100 EXP SWAP1 DIV PUSH20 0xFFFFFFFFFFFFFFFFFFFFFFFFFFFFFFFFFFFFFFFF AND PUSH20 0xFFFFFFFFFFFFFFFFFFFFFFFFFFFFFFFFFFFFFFFF AND CALLER PUSH20 0xFFFFFFFFFFFFFFFFFFFFFFFFFFFFFFFFFFFFFFFF AND EQ PUSH2 0x3AD JUMPI PUSH1 0x40 MLOAD PUSH32 0x8C379A000000000000000000000000000000000000000000000000000000000 DUP2 MSTORE PUSH1 0x4 ADD PUSH2 0x3A4 SWAP1 PUSH2 0x10CA JUMP JUMPDEST PUSH1 0x40 MLOAD DUP1 SWAP2 SUB SWAP1 REVERT JUMPDEST PUSH0 PUSH1 0x1 PUSH0 SWAP1 SLOAD SWAP1 PUSH2 0x100 EXP SWAP1 DIV PUSH20 0xFFFFFFFFFFFFFFFFFFFFFFFFFFFFFFFFFFFFFFFF AND SWAP1 POP PUSH0 DUP2 PUSH20 0xFFFFFFFFFFFFFFFFFFFFFFFFFFFFFFFFFFFFFFFF AND PUSH4 0x70A08231 ADDRESS PUSH1 0x40 MLOAD DUP3 PUSH4 0xFFFFFFFF AND PUSH1 0xE0 SHL DUP2 MSTORE PUSH1 0x4 ADD PUSH2 0x40C SWAP2 SWAP1 PUSH2 0xE0E JUMP JUMPDEST PUSH1 0x20 PUSH1 0x40 MLOAD DUP1 DUP4 SUB DUP2 DUP7 GAS STATICCALL ISZERO DUP1 ISZERO PUSH2 0x427 JUMPI RETURNDATASIZE PUSH0 DUP1 RETURNDATACOPY RETURNDATASIZE PUSH0 REVERT JUMPDEST POP POP POP POP PUSH1 0x40 MLOAD RETURNDATASIZE PUSH1 0x1F NOT PUSH1 0x1F DUP3 ADD AND DUP3 ADD DUP1 PUSH1 0x40 MSTORE POP DUP2 ADD SWAP1 PUSH2 0x44B SWAP2 SWAP1 PUSH2 0x10FC JUMP JUMPDEST SWAP1 POP PUSH0 DUP2 GT PUSH2 0x48F JUMPI PUSH1 0x40 MLOAD PUSH32 0x8C379A000000000000000000000000000000000000000000000000000000000 DUP2 MSTORE PUSH1 0x4 ADD PUSH2 0x486 SWAP1 PUSH2 0x1171 JUMP JUMPDEST PUSH1 0x40 MLOAD DUP1 SWAP2 SUB SWAP1 REVERT JUMPDEST DUP2 PUSH20 0xFFFFFFFFFFFFFFFFFFFFFFFFFFFFFFFFFFFFFFFF AND PUSH4 0xA9059CBB PUSH0 DUP1 SLOAD SWAP1 PUSH2 0x100 EXP SWAP1 DIV PUSH20 0xFFFFFFFFFFFFFFFFFFFFFFFFFFFFFFFFFFFFFFFF AND DUP4 PUSH1 0x40 MLOAD DUP4 PUSH4 0xFFFFFFFF AND PUSH1 0xE0 SHL DUP2 MSTORE PUSH1 0x4 ADD PUSH2 0x4E9 SWAP3 SWAP2 SWAP1 PUSH2 0x118F JUMP JUMPDEST PUSH1 0x20 PUSH1 0x40 MLOAD DUP1 DUP4 SUB DUP2 PUSH0 DUP8 GAS CALL ISZERO DUP1 ISZERO PUSH2 0x505 JUMPI RETURNDATASIZE PUSH0 DUP1 RETURNDATACOPY RETURNDATASIZE PUSH0 REVERT JUMPDEST POP POP POP POP PUSH1 0x40 MLOAD RETURNDATASIZE PUSH1 0x1F NOT PUSH1 0x1F DUP3 ADD AND DUP3 ADD DUP1 PUSH1 0x40 MSTORE POP DUP2 ADD SWAP1 PUSH2 0x529 SWAP2 SWAP1 PUSH2 0x11EB JUMP JUMPDEST PUSH2 0x568 JUMPI PUSH1 0x40 MLOAD PUSH32 0x8C379A000000000000000000000000000000000000000000000000000000000 DUP2 MSTORE PUSH1 0x4 ADD PUSH2 0x55F SWAP1 PUSH2 0x1260 JUMP JUMPDEST PUSH1 0x40 MLOAD DUP1 SWAP2 SUB SWAP1 REVERT JUMPDEST POP POP JUMP JUMPDEST PUSH2 0x578 DUP2 PUSH1 0x2 SLOAD PUSH2 0xC9B JUMP JUMPDEST CALLVALUE EQ PUSH2 0x5B9 JUMPI PUSH1 0x40 MLOAD PUSH32 0x8C379A000000000000000000000000000000000000000000000000000000000 DUP2 MSTORE PUSH1 0x4 ADD PUSH2 0x5B0 SWAP1 PUSH2 0x12EE JUMP JUMPDEST PUSH1 0x40 MLOAD DUP1 SWAP2 SUB SWAP1 REVERT JUMPDEST PUSH0 PUSH1 0x1 PUSH0 SWAP1 SLOAD SWAP1 PUSH2 0x100 EXP SWAP1 DIV PUSH20 0xFFFFFFFFFFFFFFFFFFFFFFFFFFFFFFFFFFFFFFFF AND SWAP1 POP DUP1 PUSH20 0xFFFFFFFFFFFFFFFFFFFFFFFFFFFFFFFFFFFFFFFF AND PUSH4 0x70A08231 ADDRESS PUSH1 0x40 MLOAD DUP3 PUSH4 0xFFFFFFFF AND PUSH1 0xE0 SHL DUP2 MSTORE PUSH1 0x4 ADD PUSH2 0x617 SWAP2 SWAP1 PUSH2 0xE0E JUMP JUMPDEST PUSH1 0x20 PUSH1 0x40 MLOAD DUP1 DUP4 SUB DUP2 DUP7 GAS STATICCALL ISZERO DUP1 ISZERO PUSH2 0x632 JUMPI RETURNDATASIZE PUSH0 DUP1 RETURNDATACOPY RETURNDATASIZE PUSH0 REVERT JUMPDEST POP POP POP POP PUSH1 0x40 MLOAD RETURNDATASIZE PUSH1 0x1F NOT PUSH1 0x1F DUP3 ADD AND DUP3 ADD DUP1 PUSH1 0x40 MSTORE POP DUP2 ADD SWAP1 PUSH2 0x656 SWAP2 SWAP1 PUSH2 0x10FC JUMP JUMPDEST DUP3 GT ISZERO PUSH2 0x698 JUMPI PUSH1 0x40 MLOAD PUSH32 0x8C379A000000000000000000000000000000000000000000000000000000000 DUP2 MSTORE PUSH1 0x4 ADD PUSH2 0x68F SWAP1 PUSH2 0x1356 JUMP JUMPDEST PUSH1 0x40 MLOAD DUP1 SWAP2 SUB SWAP1 REVERT JUMPDEST DUP1 PUSH20 0xFFFFFFFFFFFFFFFFFFFFFFFFFFFFFFFFFFFFFFFF AND PUSH4 0xA9059CBB CALLER PUSH8 0xDE0B6B3A7640000 DUP6 PUSH2 0x6C9 SWAP2 SWAP1 PUSH2 0x13A1 JUMP JUMPDEST PUSH1 0x40 MLOAD DUP4 PUSH4 0xFFFFFFFF AND PUSH1 0xE0 SHL DUP2 MSTORE PUSH1 0x4 ADD PUSH2 0x6E6 SWAP3 SWAP2 SWAP1 PUSH2 0x118F JUMP JUMPDEST PUSH1 0x20 PUSH1 0x40 MLOAD DUP1 DUP4 SUB DUP2 PUSH0 DUP8 GAS CALL ISZERO DUP1 ISZERO PUSH2 0x702 JUMPI RETURNDATASIZE PUSH0 DUP1 RETURNDATACOPY RETURNDATASIZE PUSH0 REVERT JUMPDEST POP POP POP POP PUSH1 0x40 MLOAD RETURNDATASIZE PUSH1 0x1F NOT PUSH1 0x1F DUP3 ADD AND DUP3 ADD DUP1 PUSH1 0x40 MSTORE POP DUP2 ADD SWAP1 PUSH2 0x726 SWAP2 SWAP1 PUSH2 0x11EB JUMP JUMPDEST POP PUSH0 DUP1 SLOAD SWAP1 PUSH2 0x100 EXP SWAP1 DIV PUSH20 0xFFFFFFFFFFFFFFFFFFFFFFFFFFFFFFFFFFFFFFFF AND PUSH20 0xFFFFFFFFFFFFFFFFFFFFFFFFFFFFFFFFFFFFFFFF AND PUSH2 0x8FC CALLVALUE SWAP1 DUP2 ISZERO MUL SWAP1 PUSH1 0x40 MLOAD PUSH0 PUSH1 0x40 MLOAD DUP1 DUP4 SUB DUP2 DUP6 DUP9 DUP9 CALL SWAP4 POP POP POP POP ISZERO DUP1 ISZERO PUSH2 0x789 JUMPI RETURNDATASIZE PUSH0 DUP1 RETURNDATACOPY RETURNDATASIZE PUSH0 REVERT JUMPDEST POP DUP2 PUSH1 0x3 PUSH0 DUP3 DUP3 SLOAD PUSH2 0x79B SWAP2 SWAP1 PUSH2 0x13E2 JUMP JUMPDEST SWAP3 POP POP DUP2 SWAP1 SSTORE POP POP POP JUMP JUMPDEST PUSH1 0x3 SLOAD DUP2 JUMP JUMPDEST DUP1 CALLVALUE LT ISZERO PUSH2 0x7EF JUMPI PUSH1 0x40 MLOAD PUSH32 0x8C379A000000000000000000000000000000000000000000000000000000000 DUP2 MSTORE PUSH1 0x4 ADD PUSH2 0x7E6 SWAP1 PUSH2 0xF93 JUMP JUMPDEST PUSH1 0x40 MLOAD DUP1 SWAP2 SUB SWAP1 REVERT JUMPDEST PUSH0 DUP1 PUSH0 SWAP1 SLOAD SWAP1 PUSH2 0x100 EXP SWAP1 DIV PUSH20 0xFFFFFFFFFFFFFFFFFFFFFFFFFFFFFFFFFFFFFFFF AND PUSH20 0xFFFFFFFFFFFFFFFFFFFFFFFFFFFFFFFFFFFFFFFF AND DUP3 PUSH1 0x40 MLOAD PUSH2 0x834 SWAP1 PUSH2 0xFDE JUMP JUMPDEST PUSH0 PUSH1 0x40 MLOAD DUP1 DUP4 SUB DUP2 DUP6 DUP8 GAS CALL SWAP3 POP POP POP RETURNDATASIZE DUP1 PUSH0 DUP2 EQ PUSH2 0x86E JUMPI PUSH1 0x40 MLOAD SWAP2 POP PUSH1 0x1F NOT PUSH1 0x3F RETURNDATASIZE ADD AND DUP3 ADD PUSH1 0x40 MSTORE RETURNDATASIZE DUP3 MSTORE RETURNDATASIZE PUSH0 PUSH1 0x20 DUP5 ADD RETURNDATACOPY PUSH2 0x873 JUMP JUMPDEST PUSH1 0x60 SWAP2 POP JUMPDEST POP POP SWAP1 POP DUP1 PUSH2 0x8B7 JUMPI PUSH1 0x40 MLOAD PUSH32 0x8C379A000000000000000000000000000000000000000000000000000000000 DUP2 MSTORE PUSH1 0x4 ADD PUSH2 0x8AE SWAP1 PUSH2 0x103C JUMP JUMPDEST PUSH1 0x40 MLOAD DUP1 SWAP2 SUB SWAP1 REVERT JUMPDEST POP POP JUMP JUMPDEST PUSH0 DUP1 SLOAD SWAP1 PUSH2 0x100 EXP SWAP1 DIV PUSH20 0xFFFFFFFFFFFFFFFFFFFFFFFFFFFFFFFFFFFFFFFF AND DUP2 JUMP JUMPDEST PUSH1 0x1 PUSH0 SWAP1 SLOAD SWAP1 PUSH2 0x100 EXP SWAP1 DIV PUSH20 0xFFFFFFFFFFFFFFFFFFFFFFFFFFFFFFFFFFFFFFFF AND DUP2 JUMP JUMPDEST PUSH0 DUP1 SLOAD SWAP1 PUSH2 0x100 EXP SWAP1 DIV PUSH20 0xFFFFFFFFFFFFFFFFFFFFFFFFFFFFFFFFFFFFFFFF AND PUSH20 0xFFFFFFFFFFFFFFFFFFFFFFFFFFFFFFFFFFFFFFFF AND CALLER PUSH20 0xFFFFFFFFFFFFFFFFFFFFFFFFFFFFFFFFFFFFFFFF AND EQ PUSH2 0x990 JUMPI PUSH1 0x40 MLOAD PUSH32 0x8C379A000000000000000000000000000000000000000000000000000000000 DUP2 MSTORE PUSH1 0x4 ADD PUSH2 0x987 SWAP1 PUSH2 0x10CA JUMP JUMPDEST PUSH1 0x40 MLOAD DUP1 SWAP2 SUB SWAP1 REVERT JUMPDEST DUP1 PUSH1 0x1 PUSH0 PUSH2 0x100 EXP DUP2 SLOAD DUP2 PUSH20 0xFFFFFFFFFFFFFFFFFFFFFFFFFFFFFFFFFFFFFFFF MUL NOT AND SWAP1 DUP4 PUSH20 0xFFFFFFFFFFFFFFFFFFFFFFFFFFFFFFFFFFFFFFFF AND MUL OR SWAP1 SSTORE POP POP JUMP JUMPDEST PUSH1 0x2 SLOAD DUP2 JUMP JUMPDEST PUSH1 0x60 DUP1 PUSH0 DUP1 PUSH0 DUP1 PUSH0 PUSH1 0x1 PUSH0 SWAP1 SLOAD SWAP1 PUSH2 0x100 EXP SWAP1 DIV PUSH20 0xFFFFFFFFFFFFFFFFFFFFFFFFFFFFFFFFFFFFFFFF AND SWAP1 POP DUP1 PUSH20 0xFFFFFFFFFFFFFFFFFFFFFFFFFFFFFFFFFFFFFFFF AND PUSH4 0x6FDDE03 PUSH1 0x40 MLOAD DUP2 PUSH4 0xFFFFFFFF AND PUSH1 0xE0 SHL DUP2 MSTORE PUSH1 0x4 ADD PUSH0 PUSH1 0x40 MLOAD DUP1 DUP4 SUB DUP2 DUP7 GAS STATICCALL ISZERO DUP1 ISZERO PUSH2 0xA4D JUMPI RETURNDATASIZE PUSH0 DUP1 RETURNDATACOPY RETURNDATASIZE PUSH0 REVERT JUMPDEST POP POP POP POP PUSH1 0x40 MLOAD RETURNDATASIZE PUSH0 DUP3 RETURNDATACOPY RETURNDATASIZE PUSH1 0x1F NOT PUSH1 0x1F DUP3 ADD AND DUP3 ADD DUP1 PUSH1 0x40 MSTORE POP DUP2 ADD SWAP1 PUSH2 0xA75 SWAP2 SWAP1 PUSH2 0x1533 JUMP JUMPDEST DUP2 PUSH20 0xFFFFFFFFFFFFFFFFFFFFFFFFFFFFFFFFFFFFFFFF AND PUSH4 0x95D89B41 PUSH1 0x40 MLOAD DUP2 PUSH4 0xFFFFFFFF AND PUSH1 0xE0 SHL DUP2 MSTORE PUSH1 0x4 ADD PUSH0 PUSH1 0x40 MLOAD DUP1 DUP4 SUB DUP2 DUP7 GAS STATICCALL ISZERO DUP1 ISZERO PUSH2 0xABD JUMPI RETURNDATASIZE PUSH0 DUP1 RETURNDATACOPY RETURNDATASIZE PUSH0 REVERT JUMPDEST POP POP POP POP PUSH1 0x40 MLOAD RETURNDATASIZE PUSH0 DUP3 RETURNDATACOPY RETURNDATASIZE PUSH1 0x1F NOT PUSH1 0x1F DUP3 ADD AND DUP3 ADD DUP1 PUSH1 0x40 MSTORE POP DUP2 ADD SWAP1 PUSH2 0xAE5 SWAP2 SWAP1 PUSH2 0x1533 JUMP JUMPDEST DUP3 PUSH20 0xFFFFFFFFFFFFFFFFFFFFFFFFFFFFFFFFFFFFFFFF AND PUSH4 0x70A08231 ADDRESS PUSH1 0x40 MLOAD DUP3 PUSH4 0xFFFFFFFF AND PUSH1 0xE0 SHL DUP2 MSTORE PUSH1 0x4 ADD PUSH2 0xB1E SWAP2 SWAP1 PUSH2 0xE0E JUMP JUMPDEST PUSH1 0x20 PUSH1 0x40 MLOAD DUP1 DUP4 SUB DUP2 DUP7 GAS STATICCALL ISZERO DUP1 ISZERO PUSH2 0xB39 JUMPI RETURNDATASIZE PUSH0 DUP1 RETURNDATACOPY RETURNDATASIZE PUSH0 REVERT JUMPDEST POP POP POP POP PUSH1 0x40 MLOAD RETURNDATASIZE PUSH1 0x1F NOT PUSH1 0x1F DUP3 ADD AND DUP3 ADD DUP1 PUSH1 0x40 MSTORE POP DUP2 ADD SWAP1 PUSH2 0xB5D SWAP2 SWAP1 PUSH2 0x10FC JUMP JUMPDEST DUP4 PUSH20 0xFFFFFFFFFFFFFFFFFFFFFFFFFFFFFFFFFFFFFFFF AND PUSH4 0x18160DDD PUSH1 0x40 MLOAD DUP2 PUSH4 0xFFFFFFFF AND PUSH1 0xE0 SHL DUP2 MSTORE PUSH1 0x4 ADD PUSH1 0x20 PUSH1 0x40 MLOAD DUP1 DUP4 SUB DUP2 DUP7 GAS STATICCALL ISZERO DUP1 ISZERO PUSH2 0xBA6 JUMPI RETURNDATASIZE PUSH0 DUP1 RETURNDATACOPY RETURNDATASIZE PUSH0 REVERT JUMPDEST POP POP POP POP PUSH1 0x40 MLOAD RETURNDATASIZE PUSH1 0x1F NOT PUSH1 0x1F DUP3 ADD AND DUP3 ADD DUP1 PUSH1 0x40 MSTORE POP DUP2 ADD SWAP1 PUSH2 0xBCA SWAP2 SWAP1 PUSH2 0x10FC JUMP JUMPDEST PUSH1 0x2 SLOAD PUSH1 0x1 PUSH0 SWAP1 SLOAD SWAP1 PUSH2 0x100 EXP SWAP1 DIV PUSH20 0xFFFFFFFFFFFFFFFFFFFFFFFFFFFFFFFFFFFFFFFF AND SWAP7 POP SWAP7 POP SWAP7 POP SWAP7 POP SWAP7 POP SWAP7 POP POP SWAP1 SWAP2 SWAP3 SWAP4 SWAP5 SWAP6 JUMP JUMPDEST PUSH0 DUP1 SLOAD SWAP1 PUSH2 0x100 EXP SWAP1 DIV PUSH20 0xFFFFFFFFFFFFFFFFFFFFFFFFFFFFFFFFFFFFFFFF AND PUSH20 0xFFFFFFFFFFFFFFFFFFFFFFFFFFFFFFFFFFFFFFFF AND CALLER PUSH20 0xFFFFFFFFFFFFFFFFFFFFFFFFFFFFFFFFFFFFFFFF AND EQ PUSH2 0xC91 JUMPI PUSH1 0x40 MLOAD PUSH32 0x8C379A000000000000000000000000000000000000000000000000000000000 DUP2 MSTORE PUSH1 0x4 ADD PUSH2 0xC88 SWAP1 PUSH2 0x10CA JUMP JUMPDEST PUSH1 0x40 MLOAD DUP1 SWAP2 SUB SWAP1 REVERT JUMPDEST DUP1 PUSH1 0x2 DUP2 SWAP1 SSTORE POP POP JUMP JUMPDEST PUSH0 DUP1 DUP3 EQ DUP1 PUSH2 0xCC2 JUMPI POP DUP3 DUP3 DUP4 DUP6 PUSH2 0xCB3 SWAP2 SWAP1 PUSH2 0x13A1 JUMP JUMPDEST SWAP3 POP DUP3 PUSH2 0xCC0 SWAP2 SWAP1 PUSH2 0x15A7 JUMP JUMPDEST EQ JUMPDEST PUSH2 0xCCA JUMPI PUSH0 DUP1 REVERT JUMPDEST SWAP3 SWAP2 POP POP JUMP JUMPDEST PUSH0 PUSH1 0x40 MLOAD SWAP1 POP SWAP1 JUMP JUMPDEST PUSH0 DUP1 REVERT JUMPDEST PUSH0 DUP1 REVERT JUMPDEST PUSH0 PUSH20 0xFFFFFFFFFFFFFFFFFFFFFFFFFFFFFFFFFFFFFFFF DUP3 AND SWAP1 POP SWAP2 SWAP1 POP JUMP JUMPDEST PUSH0 PUSH2 0xD0A DUP3 PUSH2 0xCE1 JUMP JUMPDEST SWAP1 POP SWAP2 SWAP1 POP JUMP JUMPDEST PUSH2 0xD1A DUP2 PUSH2 0xD00 JUMP JUMPDEST DUP2 EQ PUSH2 0xD24 JUMPI PUSH0 DUP1 REVERT JUMPDEST POP JUMP JUMPDEST PUSH0 DUP2 CALLDATALOAD SWAP1 POP PUSH2 0xD35 DUP2 PUSH2 0xD11 JUMP JUMPDEST SWAP3 SWAP2 POP POP JUMP JUMPDEST PUSH0 DUP2 SWAP1 POP SWAP2 SWAP1 POP JUMP JUMPDEST PUSH2 0xD4D DUP2 PUSH2 0xD3B JUMP JUMPDEST DUP2 EQ PUSH2 0xD57 JUMPI PUSH0 DUP1 REVERT JUMPDEST POP JUMP JUMPDEST PUSH0 DUP2 CALLDATALOAD SWAP1 POP PUSH2 0xD68 DUP2 PUSH2 0xD44 JUMP JUMPDEST SWAP3 SWAP2 POP POP JUMP JUMPDEST PUSH0 DUP1 PUSH1 0x40 DUP4 DUP6 SUB SLT ISZERO PUSH2 0xD84 JUMPI PUSH2 0xD83 PUSH2 0xCD9 JUMP JUMPDEST JUMPDEST PUSH0 PUSH2 0xD91 DUP6 DUP3 DUP7 ADD PUSH2 0xD27 JUMP JUMPDEST SWAP3 POP POP PUSH1 0x20 PUSH2 0xDA2 DUP6 DUP3 DUP7 ADD PUSH2 0xD5A JUMP JUMPDEST SWAP2 POP POP SWAP3 POP SWAP3 SWAP1 POP JUMP JUMPDEST PUSH0 PUSH1 0x20 DUP3 DUP5 SUB SLT ISZERO PUSH2 0xDC1 JUMPI PUSH2 0xDC0 PUSH2 0xCD9 JUMP JUMPDEST JUMPDEST PUSH0 PUSH2 0xDCE DUP5 DUP3 DUP6 ADD PUSH2 0xD5A JUMP JUMPDEST SWAP2 POP POP SWAP3 SWAP2 POP POP JUMP JUMPDEST PUSH2 0xDE0 DUP2 PUSH2 0xD3B JUMP JUMPDEST DUP3 MSTORE POP POP JUMP JUMPDEST PUSH0 PUSH1 0x20 DUP3 ADD SWAP1 POP PUSH2 0xDF9 PUSH0 DUP4 ADD DUP5 PUSH2 0xDD7 JUMP JUMPDEST SWAP3 SWAP2 POP POP JUMP JUMPDEST PUSH2 0xE08 DUP2 PUSH2 0xD00 JUMP JUMPDEST DUP3 MSTORE POP POP JUMP JUMPDEST PUSH0 PUSH1 0x20 DUP3 ADD SWAP1 POP PUSH2 0xE21 PUSH0 DUP4 ADD DUP5 PUSH2 0xDFF JUMP JUMPDEST SWAP3 SWAP2 POP POP JUMP JUMPDEST PUSH0 PUSH1 0x20 DUP3 DUP5 SUB SLT ISZERO PUSH2 0xE3C JUMPI PUSH2 0xE3B PUSH2 0xCD9 JUMP JUMPDEST JUMPDEST PUSH0 PUSH2 0xE49 DUP5 DUP3 DUP6 ADD PUSH2 0xD27 JUMP JUMPDEST SWAP2 POP POP SWAP3 SWAP2 POP POP JUMP JUMPDEST PUSH0 DUP2 MLOAD SWAP1 POP SWAP2 SWAP1 POP JUMP JUMPDEST PUSH0 DUP3 DUP3 MSTORE PUSH1 0x20 DUP3 ADD SWAP1 POP SWAP3 SWAP2 POP POP JUMP JUMPDEST PUSH0 JUMPDEST DUP4 DUP2 LT ISZERO PUSH2 0xE89 JUMPI DUP1 DUP3 ADD MLOAD DUP2 DUP5 ADD MSTORE PUSH1 0x20 DUP2 ADD SWAP1 POP PUSH2 0xE6E JUMP JUMPDEST PUSH0 DUP5 DUP5 ADD MSTORE POP POP POP POP JUMP JUMPDEST PUSH0 PUSH1 0x1F NOT PUSH1 0x1F DUP4 ADD AND SWAP1 POP SWAP2 SWAP1 POP JUMP JUMPDEST PUSH0 PUSH2 0xEAE DUP3 PUSH2 0xE52 JUMP JUMPDEST PUSH2 0xEB8 DUP2 DUP6 PUSH2 0xE5C JUMP JUMPDEST SWAP4 POP PUSH2 0xEC8 DUP2 DUP6 PUSH1 0x20 DUP7 ADD PUSH2 0xE6C JUMP JUMPDEST PUSH2 0xED1 DUP2 PUSH2 0xE94 JUMP JUMPDEST DUP5 ADD SWAP2 POP POP SWAP3 SWAP2 POP POP JUMP JUMPDEST PUSH0 PUSH1 0xC0 DUP3 ADD SWAP1 POP DUP2 DUP2 SUB PUSH0 DUP4 ADD MSTORE PUSH2 0xEF4 DUP2 DUP10 PUSH2 0xEA4 JUMP JUMPDEST SWAP1 POP DUP2 DUP2 SUB PUSH1 0x20 DUP4 ADD MSTORE PUSH2 0xF08 DUP2 DUP9 PUSH2 0xEA4 JUMP JUMPDEST SWAP1 POP PUSH2 0xF17 PUSH1 0x40 DUP4 ADD DUP8 PUSH2 0xDD7 JUMP JUMPDEST PUSH2 0xF24 PUSH1 0x60 DUP4 ADD DUP7 PUSH2 0xDD7 JUMP JUMPDEST PUSH2 0xF31 PUSH1 0x80 DUP4 ADD DUP6 PUSH2 0xDD7 JUMP JUMPDEST PUSH2 0xF3E PUSH1 0xA0 DUP4 ADD DUP5 PUSH2 0xDFF JUMP JUMPDEST SWAP8 SWAP7 POP POP POP POP POP POP POP JUMP JUMPDEST PUSH32 0x496E737566666963656E742066756E6E642073656E7400000000000000000000 PUSH0 DUP3 ADD MSTORE POP JUMP JUMPDEST PUSH0 PUSH2 0xF7D PUSH1 0x16 DUP4 PUSH2 0xE5C JUMP JUMPDEST SWAP2 POP PUSH2 0xF88 DUP3 PUSH2 0xF49 JUMP JUMPDEST PUSH1 0x20 DUP3 ADD SWAP1 POP SWAP2 SWAP1 POP JUMP JUMPDEST PUSH0 PUSH1 0x20 DUP3 ADD SWAP1 POP DUP2 DUP2 SUB PUSH0 DUP4 ADD MSTORE PUSH2 0xFAA DUP2 PUSH2 0xF71 JUMP JUMPDEST SWAP1 POP SWAP2 SWAP1 POP JUMP JUMPDEST PUSH0 DUP2 SWAP1 POP SWAP3 SWAP2 POP POP JUMP JUMPDEST POP JUMP JUMPDEST PUSH0 PUSH2 0xFC9 PUSH0 DUP4 PUSH2 0xFB1 JUMP JUMPDEST SWAP2 POP PUSH2 0xFD4 DUP3 PUSH2 0xFBB JUMP JUMPDEST PUSH0 DUP3 ADD SWAP1 POP SWAP2 SWAP1 POP JUMP JUMPDEST PUSH0 PUSH2 0xFE8 DUP3 PUSH2 0xFBE JUMP JUMPDEST SWAP2 POP DUP2 SWAP1 POP SWAP2 SWAP1 POP JUMP JUMPDEST PUSH32 0x5472616E73616374696F6E206661696C65640000000000000000000000000000 PUSH0 DUP3 ADD MSTORE POP JUMP JUMPDEST PUSH0 PUSH2 0x1026 PUSH1 0x12 DUP4 PUSH2 0xE5C JUMP JUMPDEST SWAP2 POP PUSH2 0x1031 DUP3 PUSH2 0xFF2 JUMP JUMPDEST PUSH1 0x20 DUP3 ADD SWAP1 POP SWAP2 SWAP1 POP JUMP JUMPDEST PUSH0 PUSH1 0x20 DUP3 ADD SWAP1 POP DUP2 DUP2 SUB PUSH0 DUP4 ADD MSTORE PUSH2 0x1053 DUP2 PUSH2 0x101A JUMP JUMPDEST SWAP1 POP SWAP2 SWAP1 POP JUMP JUMPDEST PUSH32 0x546869732066756E6374696F6E206973206F6E6C792063616C6C656420627920 PUSH0 DUP3 ADD MSTORE PUSH32 0x6F776E6572000000000000000000000000000000000000000000000000000000 PUSH1 0x20 DUP3 ADD MSTORE POP JUMP JUMPDEST PUSH0 PUSH2 0x10B4 PUSH1 0x25 DUP4 PUSH2 0xE5C JUMP JUMPDEST SWAP2 POP PUSH2 0x10BF DUP3 PUSH2 0x105A JUMP JUMPDEST PUSH1 0x40 DUP3 ADD SWAP1 POP SWAP2 SWAP1 POP JUMP JUMPDEST PUSH0 PUSH1 0x20 DUP3 ADD SWAP1 POP DUP2 DUP2 SUB PUSH0 DUP4 ADD MSTORE PUSH2 0x10E1 DUP2 PUSH2 0x10A8 JUMP JUMPDEST SWAP1 POP SWAP2 SWAP1 POP JUMP JUMPDEST PUSH0 DUP2 MLOAD SWAP1 POP PUSH2 0x10F6 DUP2 PUSH2 0xD44 JUMP JUMPDEST SWAP3 SWAP2 POP POP JUMP JUMPDEST PUSH0 PUSH1 0x20 DUP3 DUP5 SUB SLT ISZERO PUSH2 0x1111 JUMPI PUSH2 0x1110 PUSH2 0xCD9 JUMP JUMPDEST JUMPDEST PUSH0 PUSH2 0x111E DUP5 DUP3 DUP6 ADD PUSH2 0x10E8 JUMP JUMPDEST SWAP2 POP POP SWAP3 SWAP2 POP POP JUMP JUMPDEST PUSH32 0x7468657265206973206E6F20746F6B656E20746F207472616E73666572000000 PUSH0 DUP3 ADD MSTORE POP JUMP JUMPDEST PUSH0 PUSH2 0x115B PUSH1 0x1D DUP4 PUSH2 0xE5C JUMP JUMPDEST SWAP2 POP PUSH2 0x1166 DUP3 PUSH2 0x1127 JUMP JUMPDEST PUSH1 0x20 DUP3 ADD SWAP1 POP SWAP2 SWAP1 POP JUMP JUMPDEST PUSH0 PUSH1 0x20 DUP3 ADD SWAP1 POP DUP2 DUP2 SUB PUSH0 DUP4 ADD MSTORE PUSH2 0x1188 DUP2 PUSH2 0x114F JUMP JUMPDEST SWAP1 POP SWAP2 SWAP1 POP JUMP JUMPDEST PUSH0 PUSH1 0x40 DUP3 ADD SWAP1 POP PUSH2 0x11A2 PUSH0 DUP4 ADD DUP6 PUSH2 0xDFF JUMP JUMPDEST PUSH2 0x11AF PUSH1 0x20 DUP4 ADD DUP5 PUSH2 0xDD7 JUMP JUMPDEST SWAP4 SWAP3 POP POP POP JUMP JUMPDEST PUSH0 DUP2 ISZERO ISZERO SWAP1 POP SWAP2 SWAP1 POP JUMP JUMPDEST PUSH2 0x11CA DUP2 PUSH2 0x11B6 JUMP JUMPDEST DUP2 EQ PUSH2 0x11D4 JUMPI PUSH0 DUP1 REVERT JUMPDEST POP JUMP JUMPDEST PUSH0 DUP2 MLOAD SWAP1 POP PUSH2 0x11E5 DUP2 PUSH2 0x11C1 JUMP JUMPDEST SWAP3 SWAP2 POP POP JUMP JUMPDEST PUSH0 PUSH1 0x20 DUP3 DUP5 SUB SLT ISZERO PUSH2 0x1200 JUMPI PUSH2 0x11FF PUSH2 0xCD9 JUMP JUMPDEST JUMPDEST PUSH0 PUSH2 0x120D DUP5 DUP3 DUP6 ADD PUSH2 0x11D7 JUMP JUMPDEST SWAP2 POP POP SWAP3 SWAP2 POP POP JUMP JUMPDEST PUSH32 0x7472616E73616374696F6E20676F74206661696C656400000000000000000000 PUSH0 DUP3 ADD MSTORE POP JUMP JUMPDEST PUSH0 PUSH2 0x124A PUSH1 0x16 DUP4 PUSH2 0xE5C JUMP JUMPDEST SWAP2 POP PUSH2 0x1255 DUP3 PUSH2 0x1216 JUMP JUMPDEST PUSH1 0x20 DUP3 ADD SWAP1 POP SWAP2 SWAP1 POP JUMP JUMPDEST PUSH0 PUSH1 0x20 DUP3 ADD SWAP1 POP DUP2 DUP2 SUB PUSH0 DUP4 ADD MSTORE PUSH2 0x1277 DUP2 PUSH2 0x123E JUMP JUMPDEST SWAP1 POP SWAP2 SWAP1 POP JUMP JUMPDEST PUSH32 0x496E737566666963656E742066756E6420746F206275792074686520746F6B65 PUSH0 DUP3 ADD MSTORE PUSH32 0x6E00000000000000000000000000000000000000000000000000000000000000 PUSH1 0x20 DUP3 ADD MSTORE POP JUMP JUMPDEST PUSH0 PUSH2 0x12D8 PUSH1 0x21 DUP4 PUSH2 0xE5C JUMP JUMPDEST SWAP2 POP PUSH2 0x12E3 DUP3 PUSH2 0x127E JUMP JUMPDEST PUSH1 0x40 DUP3 ADD SWAP1 POP SWAP2 SWAP1 POP JUMP JUMPDEST PUSH0 PUSH1 0x20 DUP3 ADD SWAP1 POP DUP2 DUP2 SUB PUSH0 DUP4 ADD MSTORE PUSH2 0x1305 DUP2 PUSH2 0x12CC JUMP JUMPDEST SWAP1 POP SWAP2 SWAP1 POP JUMP JUMPDEST PUSH32 0x7468657265206973206E6F2073756666696365696E7420746F6B656E73000000 PUSH0 DUP3 ADD MSTORE POP JUMP JUMPDEST PUSH0 PUSH2 0x1340 PUSH1 0x1D DUP4 PUSH2 0xE5C JUMP JUMPDEST SWAP2 POP PUSH2 0x134B DUP3 PUSH2 0x130C JUMP JUMPDEST PUSH1 0x20 DUP3 ADD SWAP1 POP SWAP2 SWAP1 POP JUMP JUMPDEST PUSH0 PUSH1 0x20 DUP3 ADD SWAP1 POP DUP2 DUP2 SUB PUSH0 DUP4 ADD MSTORE PUSH2 0x136D DUP2 PUSH2 0x1334 JUMP JUMPDEST SWAP1 POP SWAP2 SWAP1 POP JUMP JUMPDEST PUSH32 0x4E487B7100000000000000000000000000000000000000000000000000000000 PUSH0 MSTORE PUSH1 0x11 PUSH1 0x4 MSTORE PUSH1 0x24 PUSH0 REVERT JUMPDEST PUSH0 PUSH2 0x13AB DUP3 PUSH2 0xD3B JUMP JUMPDEST SWAP2 POP PUSH2 0x13B6 DUP4 PUSH2 0xD3B JUMP JUMPDEST SWAP3 POP DUP3 DUP3 MUL PUSH2 0x13C4 DUP2 PUSH2 0xD3B JUMP JUMPDEST SWAP2 POP DUP3 DUP3 DIV DUP5 EQ DUP4 ISZERO OR PUSH2 0x13DB JUMPI PUSH2 0x13DA PUSH2 0x1374 JUMP JUMPDEST JUMPDEST POP SWAP3 SWAP2 POP POP JUMP JUMPDEST PUSH0 PUSH2 0x13EC DUP3 PUSH2 0xD3B JUMP JUMPDEST SWAP2 POP PUSH2 0x13F7 DUP4 PUSH2 0xD3B JUMP JUMPDEST SWAP3 POP DUP3 DUP3 ADD SWAP1 POP DUP1 DUP3 GT ISZERO PUSH2 0x140F JUMPI PUSH2 0x140E PUSH2 0x1374 JUMP JUMPDEST JUMPDEST SWAP3 SWAP2 POP POP JUMP JUMPDEST PUSH0 DUP1 REVERT JUMPDEST PUSH0 DUP1 REVERT JUMPDEST PUSH32 0x4E487B7100000000000000000000000000000000000000000000000000000000 PUSH0 MSTORE PUSH1 0x41 PUSH1 0x4 MSTORE PUSH1 0x24 PUSH0 REVERT JUMPDEST PUSH2 0x1453 DUP3 PUSH2 0xE94 JUMP JUMPDEST DUP2 ADD DUP2 DUP2 LT PUSH8 0xFFFFFFFFFFFFFFFF DUP3 GT OR ISZERO PUSH2 0x1472 JUMPI PUSH2 0x1471 PUSH2 0x141D JUMP JUMPDEST JUMPDEST DUP1 PUSH1 0x40 MSTORE POP POP POP JUMP JUMPDEST PUSH0 PUSH2 0x1484 PUSH2 0xCD0 JUMP JUMPDEST SWAP1 POP PUSH2 0x1490 DUP3 DUP3 PUSH2 0x144A JUMP JUMPDEST SWAP2 SWAP1 POP JUMP JUMPDEST PUSH0 PUSH8 0xFFFFFFFFFFFFFFFF DUP3 GT ISZERO PUSH2 0x14AF JUMPI PUSH2 0x14AE PUSH2 0x141D JUMP JUMPDEST JUMPDEST PUSH2 0x14B8 DUP3 PUSH2 0xE94 JUMP JUMPDEST SWAP1 POP PUSH1 0x20 DUP2 ADD SWAP1 POP SWAP2 SWAP1 POP JUMP JUMPDEST PUSH0 PUSH2 0x14D7 PUSH2 0x14D2 DUP5 PUSH2 0x1495 JUMP JUMPDEST PUSH2 0x147B JUMP JUMPDEST SWAP1 POP DUP3 DUP2 MSTORE PUSH1 0x20 DUP2 ADD DUP5 DUP5 DUP5 ADD GT ISZERO PUSH2 0x14F3 JUMPI PUSH2 0x14F2 PUSH2 0x1419 JUMP JUMPDEST JUMPDEST PUSH2 0x14FE DUP5 DUP3 DUP6 PUSH2 0xE6C JUMP JUMPDEST POP SWAP4 SWAP3 POP POP POP JUMP JUMPDEST PUSH0 DUP3 PUSH1 0x1F DUP4 ADD SLT PUSH2 0x151A JUMPI PUSH2 0x1519 PUSH2 0x1415 JUMP JUMPDEST JUMPDEST DUP2 MLOAD PUSH2 0x152A DUP5 DUP3 PUSH1 0x20 DUP7 ADD PUSH2 0x14C5 JUMP JUMPDEST SWAP2 POP POP SWAP3 SWAP2 POP POP JUMP JUMPDEST PUSH0 PUSH1 0x20 DUP3 DUP5 SUB SLT ISZERO PUSH2 0x1548 JUMPI PUSH2 0x1547 PUSH2 0xCD9 JUMP JUMPDEST JUMPDEST PUSH0 DUP3 ADD MLOAD PUSH8 0xFFFFFFFFFFFFFFFF DUP2 GT ISZERO PUSH2 0x1565 JUMPI PUSH2 0x1564 PUSH2 0xCDD JUMP JUMPDEST JUMPDEST PUSH2 0x1571 DUP5 DUP3 DUP6 ADD PUSH2 0x1506 JUMP JUMPDEST SWAP2 POP POP SWAP3 SWAP2 POP POP JUMP JUMPDEST PUSH32 0x4E487B7100000000000000000000000000000000000000000000000000000000 PUSH0 MSTORE PUSH1 0x12 PUSH1 0x4 MSTORE PUSH1 0x24 PUSH0 REVERT JUMPDEST PUSH0 PUSH2 0x15B1 DUP3 PUSH2 0xD3B JUMP JUMPDEST SWAP2 POP PUSH2 0x15BC DUP4 PUSH2 0xD3B JUMP JUMPDEST SWAP3 POP DUP3 PUSH2 0x15CC JUMPI PUSH2 0x15CB PUSH2 0x157A JUMP JUMPDEST JUMPDEST DUP3 DUP3 DIV SWAP1 POP SWAP3 SWAP2 POP POP JUMP INVALID LOG2 PUSH5 0x6970667358 0x22 SLT KECCAK256 ADDMOD SWAP1 CALLDATASIZE PUSH15 0xA8DD21A6E4E117AF1E3251037EF80D 0x2C LOG2 0x4F 0xC0 DIV MLOAD TLOAD PUSH6 0xC4CEEB535D64 PUSH20 0x6F6C634300081800330000000000000000000000 "
		},
		"gasEstimates": {
			"creation": {
				"codeDepositCost": "1129000",
				"executionCost": "25437",
				"totalCost": "1154437"
			},
			"external": {
				"buyToken(uint256)": "infinite",
				"getTokenDetails()": "infinite",
				"owner()": "2505",
				"soldTokens()": "2492",
				"tokenAddress()": "2530",
				"tokenSalePrice()": "2491",
				"transferEther(address,uint256)": "infinite",
				"transferToOwner(uint256)": "infinite",
				"updateTokenSalePrice(uint256)": "24791",
				"uptateToken(address)": "26925",
				"withdrawAllTokens()": "infinite"
			},
			"internal": {
				"multiply(uint256,uint256)": "infinite"
			}
		},
		"methodIdentifiers": {
			"buyToken(uint256)": "2d296bf1",
			"getTokenDetails()": "ff332ab7",
			"owner()": "8da5cb5b",
			"soldTokens()": "5ed9ebfc",
			"tokenAddress()": "9d76ea58",
			"tokenSalePrice()": "e86790eb",
			"transferEther(address,uint256)": "05b1137b",
			"transferToOwner(uint256)": "87c1ed12",
			"updateTokenSalePrice(uint256)": "ffdeb903",
			"uptateToken(address)": "d27aa8ff",
			"withdrawAllTokens()": "280da6fa"
		}
	},
	"abi": [
		{
			"inputs": [],
			"stateMutability": "nonpayable",
			"type": "constructor"
		},
		{
			"inputs": [
				{
					"internalType": "uint256",
					"name": "_tokenAmount",
					"type": "uint256"
				}
			],
			"name": "buyToken",
			"outputs": [],
			"stateMutability": "payable",
			"type": "function"
		},
		{
			"inputs": [],
			"name": "getTokenDetails",
			"outputs": [
				{
					"internalType": "string",
					"name": "name",
					"type": "string"
				},
				{
					"internalType": "string",
					"name": "symbol",
					"type": "string"
				},
				{
					"internalType": "uint256",
					"name": "balance",
					"type": "uint256"
				},
				{
					"internalType": "uint256",
					"name": "supply",
					"type": "uint256"
				},
				{
					"internalType": "uint256",
					"name": "tokenprice",
					"type": "uint256"
				},
				{
					"internalType": "address",
					"name": "tokenaddress",
					"type": "address"
				}
			],
			"stateMutability": "view",
			"type": "function"
		},
		{
			"inputs": [],
			"name": "owner",
			"outputs": [
				{
					"internalType": "address",
					"name": "",
					"type": "address"
				}
			],
			"stateMutability": "view",
			"type": "function"
		},
		{
			"inputs": [],
			"name": "soldTokens",
			"outputs": [
				{
					"internalType": "uint256",
					"name": "",
					"type": "uint256"
				}
			],
			"stateMutability": "view",
			"type": "function"
		},
		{
			"inputs": [],
			"name": "tokenAddress",
			"outputs": [
				{
					"internalType": "address",
					"name": "",
					"type": "address"
				}
			],
			"stateMutability": "view",
			"type": "function"
		},
		{
			"inputs": [],
			"name": "tokenSalePrice",
			"outputs": [
				{
					"internalType": "uint256",
					"name": "",
					"type": "uint256"
				}
			],
			"stateMutability": "view",
			"type": "function"
		},
		{
			"inputs": [
				{
					"internalType": "address",
					"name": "_receiver",
					"type": "address"
				},
				{
					"internalType": "uint256",
					"name": "_amount",
					"type": "uint256"
				}
			],
			"name": "transferEther",
			"outputs": [],
			"stateMutability": "payable",
			"type": "function"
		},
		{
			"inputs": [
				{
					"internalType": "uint256",
					"name": "_amount",
					"type": "uint256"
				}
			],
			"name": "transferToOwner",
			"outputs": [],
			"stateMutability": "payable",
			"type": "function"
		},
		{
			"inputs": [
				{
					"internalType": "uint256",
					"name": "_TokenPrice",
					"type": "uint256"
				}
			],
			"name": "updateTokenSalePrice",
			"outputs": [],
			"stateMutability": "nonpayable",
			"type": "function"
		},
		{
			"inputs": [
				{
					"internalType": "address",
					"name": "_tokenAddress",
					"type": "address"
				}
			],
			"name": "uptateToken",
			"outputs": [],
			"stateMutability": "nonpayable",
			"type": "function"
		},
		{
			"inputs": [],
			"name": "withdrawAllTokens",
			"outputs": [],
			"stateMutability": "nonpayable",
			"type": "function"
		}
	]
}